S0100000636F6D706C6574652E73726563BB
S11300000C94AB000C94A8010C94D1010C944D05F4
S11300100C94C8000C94C8000C94C8000C94FA0109
S11300200C94C8000C94C8000C9473020C94C8007F
S11300300C94C8000C94C8000C94C8000C94C8001C
S11300400C94C8000C94C8000C94C8000C94C8000C
S11300500C94C8006E616E00696E660000407A10F0
S1130060F35A00A0724E18090010A5D4E80000E865
S11300707648170000E40B54020000CA9A3B0000C3
S113008000E1F505000080969800000040420F0052
S11300900000A08601000000102700000000E80313
S11300A0000000006400000000000A0000000000DE
S11300B00100000000002C76D888DC674F0823DF9D
S11300C0C1DFAE59E1B1B796E5E3E453C63AE65170
S11300D0997696E8E6C28426EB898C9B62ED407C97
S11300E06FFCEFBC9C9F40F2BAA56FA5F490055A33
S11300F02AF75C936B6CF9676DC11BFCE0E40D4758
S1130100FEF520E6B500D0ED902E0300943577057A
S11301100080841E080000204E0A000000C80C3332
S11301203333330F986E12831141EF8D2114893BC1
S1130130E65516CFFEE6DB18D1844B381BF77C1D41
S1130140901DA4BBE424203284725E228100C9F194
S113015024ECA1E53D2711241FBECFE5D8E0DEBF86
S1130160CDBF11E0A0E6B0E0E6EFF9E102C00590F2
S11301700D92A430B107D9F721E0A4E0B1E001C0A9
S11301801D92A632B207E1F70E947B030C94F90C8E
S11301900C94000011B888E480B984E086BF089507
S11301A084EA86BF06B607FEFDCF089584E986BFBC
S11301B006B604FCFDCF089590E0880F991F862BA6
S11301C083B984E886BF06B607FEFDCF81B1887F78
S11301D0089583B984E886BF06B607FEFDCF81B1D2
S11301E0887F0895813021F488E080931001089578
S11301F01092100108951F93CF93DF93D82FC62F29
S11302000E94D00060E0809111010E94DC001D2F4B
S11302101C2B80911001812B0E94E9000E94D600C2
S11302200E94D00060E0809111010E94DC00809166
S11302301001812B84600E94E9000E94D6008FE89F
S113024091E00197F1F700C000000E94D00060E047
S1130250809111010E94DC00DB7FCD2B8091100185
S11302608C2B0E94E9000E94D6008FE99FE0019741
S1130270F1F700C00000DF91CF911F910895CF9353
S1130280C82F60E0807F0E94FB0060E08C2F829585
S1130290807F0E94FB00CF9108950E94CA0081E0F4
S11302A00E94F2008FE39CE90197F1F700C000007F
S11302B082E00E943F0188E20E943F018CE00E949C
S11302C03F0186E00E943F0181E00E943F010895C2
S11302D0CF93C82F61E0807F0E94FB0061E08C2FE8
S11302E08295807F0E94FB00CF9108950F931F9306
S11302F0CF93DF938C01C0E0D0E003C00E9468017B
S11303002196F801EC0FFD1F80818111F7CFDF9159
S1130310CF911F910F910895CF93DF93EA0161303C
S113032031F058F0623029F0633029F007C090ECC6
S113033005C094E903C094ED01C090E88F70890F63
S11303400E943F01CE010E947601DF91CF91089572
S11303501F920F920FB60F9211248F939F9309B699
S113036004FE12C089B78F7E89BF8CB59DB5892BD9
S113037089F080910D018F5F80930D011DBC1CBC21
S11303808BB3877F8BBB06C089B7806189BF8BB372
S113039088608BBB9F918F910F900FBE0F901F9021
S11303A018951F920F920FB60F9211248F939F935B
S11303B009B604FE12C089B78F7E89BF8CB59DB57E
S11303C0892B89F080910D01882369F081508093F5
S11303D00D018BB3877F8BBB06C089B7806189BF52
S11303E08BB388608BBB9F918F910F900FBE0F9042
S11303F01F9018951F920F920FB60F9211248F938E
S113040089B78F7E89BF8BB3877F8BBB1DBC1CBC18
S11304108F910F900FBE0F901F90189597B1907FFA
S11304208F70892B87B986B1806486B93699FECFDF
S113043084B195B10895811129C090E051C082B36F
S113044021E030E0062E02C0220F331F0A94E2F7A7
S1130450822B82BB80E007C0E7ECF0E03197F1F734
S113046000C000008F5F8A30B8F382B32095282340
S113047022BB80E007C0E7ECF0E03197F1F700C061
S113048000008F5F8A30B8F39F5F01C090E094361C
S1130490B0F2089582B321E030E0062E02C0220FAC
S11304A0331F0A94E2F7822B82BB80E007C0E7EC9B
S11304B0F0E03197F1F700C000008F5F8F30B8F3A0
S11304C082B32095282322BB80E007C0E7ECF0E04C
S11304D03197F1F700C000008F5F8F30B8F39F5F52
S11304E09436C0F208951F920F920FB60F92112402
S11304F08F939F9380910A0190910B0101969093A1
S11305000B0180930A0112BE9F918F910F900FBE31
S11305100F901F901895CF92DF92EF92FF92109256
S11305200701109206011092050180E033C095B3D3
S1130530986095BB9AE19A95F1F700C09A9B11C017
S113054047E050E0481B510921E030E002C0220F8F
S1130550331F4A95E2F790910701292B2093070155
S113056011C047E050E0481B510921E030E002C0CF
S1130570220F331F4A95E2F7209590910701292312
S11305802093070195B3977F95BB9DE09A95F1F76A
S113059000008F5F883058F280E03EC095B39860C9
S11305A095BB9AE19A95F1F700C09A9B16C04FE06B
S11305B050E0481B510921E030E002C0220F331FF4
S11305C04A95E2F74091050150910601242B352B01
S11305D0309306012093050117C04FE050E0481BFB
S11305E0510921E030E002C0220F331F4A95E2F79F
S11305F0209530954091050150910601242335231F
S1130600309306012093050195B3977F95BB9DE038
S11306109A95F1F700008F5F803108F4BFCF809185
S11306200501909106019695879590930601809314
S113063005016091070160FF05C090689093060171
S11306408093050166956093070170E080E090E077
S11306500E94790624E632EA48E650E40E940A073A
S11306606B017C01609105017091060180E090E0CE
S11306700E94770623E33BED4CE856E40E94D6053E
S11306809B01AC01C701B6010E946A05FF90EF907F
S1130690DF90CF90089582B38F7E82BB85E88A95E0
S11306A0F1F7000082B3806182BB85E88A95F1F797
S11306B0000082B38F7E82BB04C010920B011092A3
S11306C00A01859BFACF14C060910A0170910B0155
S11306D080E090E00E94770627E33AE144E850E4A2
S11306E00E94D6050E944806709309016093080190
S11306F08599EACF089583E2809311010E944D0108
S113070087E2809311010E944D0140E650E060E0D1
S113071084E00E948C012FEF34E38CE021503040C0
S11307208040E1F700C0000081E00E943F0185B7EE
S11307308F6085BF84B7806484BF8BB7806E8BBFA6
S113074086B1876086B987B1806C87B986B18068C5
S113075086B98BB382608BBB8EB58D608EBD1DBC9C
S11307601CBC82E19AE79BBD8ABD8AB38C618ABBBB
S113077081B3806181BB81B3806481BB81B38068B4
S113078081BB87B3886087BB83B7886083BF83B727
S1130790826083BF12BE8AE08CBF89B7826089BF42
S11307A084B3886084BB85B3877F85BB789487E2F4
S11307B0809311010E944B0348E650E060E080E022
S11307C00E948C018091080190910901449708F0DE
S11307D000C180E00E940E02BC0180E090E00E9413
S11307E0770628E030E240E85EE30E940A070E94B0
S11307F0480670930F0160930E0127E220931101C4
S11308006832710508F0D0C081E00E943F014FE6D4
S113081050E060E080E00E948C019FEF24E33CE024
S1130820915020403040E1F700C0000081E00E9478
S11308303F018BB380618BBB8FEF99E628E1815038
S113084090402040E1F700C000008BB38F7E8BBB4B
S113085080910D01863020F467E081E00E941B0244
S11308604EE750E060E080E00E948C013FEF84E3BB
S11308709CE0315080409040E1F700C0000080E0EF
S113088087C0C9997BC081E00E943F014BE850E0DA
S113089060E080E00E948C0166E081E00E941B021F
S11308A081E00E943F0143E950E060E080E00E9463
S11308B08C01F12C5EC00E948B02062F172FD82FBB
S11308C0C92F9F938F937F936F938DE990E09F93AC
S11308D08F9382E191E09F938F930E94790C42E180
S11308E051E061E080E00E948C012DB73EB7285FA3
S11308F03F4F0FB6F8943EBF0FBE2DBF20E030E04F
S113090040E252E4602F712F8D2F9C2F0E94050727
S113091018162CF581E00E943F0145EA50E060E0A2
S113092080E00E948C0166E080E00E941B028BB391
S113093084608BBB3FEF89E698E131508040904062
S1130940E1F700C000008BB38B7F8BBB66E081E0D6
S11309500E941B0281E00E943F0183E60FC02FEF3B
S113096030E782E0215030408040E1F700C00000D1
S1130970F39493E69F1508F09ECF83E62FEF30E7BC
S113098092E0215030409040E1F700C000008F5FBA
S1130990843608F476CF67E080E00E941B0266E0AC
S11309A080E00E941B0215C081E00E943F0141EBE0
S11309B050E060E080E00E948C012FEF39E688E18E
S11309C0215030408040E1F700C0000081E00E94E7
S11309D03F0190910C0180910D018917B0F466E0FC
S11309E081E00E941B0280910D0180930C019FEF16
S11309F029E638E1915020403040E1F700C0000082
S1130A0066E080E00E941B0202C080930C0183E236
S1130A108093110180910401882339F04BEB50E05D
S1130A2060E080E00E948C0106C047EC50E060E08A
S1130A3080E00E948C0180910D011F928F9384EDC0
S1130A4090E09F938F9382E191E09F938F930E9414
S1130A50790C42E151E061E080E00E948C018FE179
S1130A609EE40197F1F700C0000080910D010F9002
S1130A700F900F900F900F900F90873038F042EE48
S1130A8050E062E080E00E948C0191CE43EF50E0A0
S1130A9062E080E00E948C018ACE1F920F920FB612
S1130AA00F9211248F939F9398B388E0892788BB72
S1130AB080910401882319F01092040103C081E09D
S1130AC0809304019F918F910F900FBE0F901F9000
S1130AD018955058BB27AA270E9481050C94CB0671
S1130AE00E94BD0638F00E94C40620F039F49F3FEE
S1130AF019F426F40C94BA060EF4E095E7FB0C9472
S1130B00B406E92F0E94DC0658F3BA17620773078C
S1130B108407950720F079F4A6F50C94FE060EF4EC
S1130B20E0950B2EBA2FA02D0B01B90190010C01F9
S1130B30CA01A0011124FF27591B99F0593F50F411
S1130B40503E68F11A16F040A22F232F342F442769
S1130B50585FF3CF469537952795A795F040539561
S1130B60C9F77EF41F16BA0B620B730B840BBAF031
S1130B709150A1F0FF0FBB1F661F771F881FC2F79C
S1130B800EC0BA0F621F731F841F48F487957795B0
S1130B906795B795F7959E3F08F0B0CF9395880F6A
S1130BA008F09927EE0F9795879508950E94EA0516
S1130BB00C94CB060E94C40658F00E94BD0640F077
S1130BC029F45F3F29F00C94B40651110C94FF06EC
S1130BD00C94BA060E94DC0668F39923B1F35523FA
S1130BE091F3951B550BBB27AA276217730784073C
S1130BF038F09F5F5F4F220F331F441FAA1FA9F3D2
S1130C0035D00E2E3AF0E0E832D091505040E695BF
S1130C10001CCAF72BD0FE2F29D0660F771F881F20
S1130C20BB1F261737074807AB07B0E809F0BB0B13
S1130C30802DBF01FF2793585F4F3AF09E3F510527
S1130C4078F00C94B4060C94FF065F3FE4F3983EEE
S1130C50D4F3869577956795B795F7959F5FC9F710
S1130C60880F911D9695879597F90895E1E0660F91
S1130C70771F881FBB1F621773078407BA0720F00A
S1130C80621B730B840BBA0BEE1F88F7E095089573
S1130C900E94E40688F09F5798F0B92F9927B7511E
S1130CA0B0F0E1F0660F771F881F991F1AF0BA950C
S1130CB0C9F714C0B13091F00E94FE06B1E0089566
S1130CC00C94FE06672F782F8827B85F39F0B93F58
S1130CD0CCF3869577956795B395D9F73EF49095BF
S1130CE08095709561957F4F8F4F9F4F0895E8943D
S1130CF009C097FB3EF490958095709561957F4F60
S1130D008F4F9F4F9923A9F0F92F96E9BB2793950D
S1130D10F695879577956795B795F111F8CFFAF41D
S1130D20BB0F11F460FF1BC06F5F7F4F8F4F9F4F4E
S1130D3016C0882311F096E911C0772321F09EE8AC
S1130D40872F762F05C0662371F096E8862F70E012
S1130D5060E02AF09A95660F771F881FDAF7880FEC
S1130D609695879597F9089597F99F6780E870E0BD
S1130D7060E008959FEF80EC089500240A9416160D
S1130D80170618060906089500240A941216130675
S1130D90140605060895092E0394000C11F4882303
S1130DA052F0BB0F40F4BF2B11F460FF04C06F5F1F
S1130DB07F4F8F4F9F4F089557FD9058440F551FF5
S1130DC059F05F3F71F04795880F97FB991F61F0C9
S1130DD09F3F79F087950895121613061406551F40
S1130DE0F2CF4695F1DF08C0161617061806991FAC
S1130DF0F1CF86957105610508940895E894BB27A1
S1130E0066277727CB0197F908950E94770708F49E
S1130E108FEF08950E941D070C94CB060E94BD0617
S1130E2038F00E94C40620F0952311F00C94B40607
S1130E300C94BA0611240C94FF060E94DC0670F38D
S1130E40959FC1F3950F50E0551F629FF001729F6B
S1130E50BB27F00DB11D639FAA27F00DB11DAA1F7A
S1130E60649F6627B00DA11D661F829F2227B00DC7
S1130E70A11D621F739FB00DA11D621F839FA00D52
S1130E80611D221F749F3327A00D611D231F849FA2
S1130E90600D211D822F762F6A2F11249F575040F9
S1130EA09AF0F1F088234AF0EE0FFF1FBB1F661F74
S1130EB0771F881F91505040A9F79E3F510580F03D
S1130EC00C94B4060C94FF065F3FE4F3983ED4F30D
S1130ED0869577956795B795F795E7959F5FC1F7E1
S1130EE0FE2B880F911D9695879597F90895990F74
S1130EF00008550FAA0BE0E8FEEF16161706E807E0
S1130F00F907C0F012161306E407F50798F0621B00
S1130F10730B840B950B39F40A2661F0232B242BD5
S1130F20252B21F408950A2609F4A140A6958FEFF4
S1130F30811D811D0895A0E1B0E0E1EAF7E00C9481
S1130F40180B7C011B016A01FC0117821682838144
S1130F5081FF44C39E012F5F3F4F3901F701938105
S1130F60F10193FD859193FF81911F01882309F479
S1130F7031C3853239F493FD859193FF81911F012B
S1130F80853239F4B70190E00E943D0C56016501A9
S1130F90E5CF10E0512C912CFFE1F915D8F08B32FC
S1130FA079F038F4803279F08332A1F4F92DF061CC
S1130FB02EC08D3261F0803369F4292D21602DC05B
S1130FC0392D3260932E892D8460982E2AC0E92D04
S1130FD0E86015C097FC2DC020ED280F2A3088F456
S1130FE096FE06C03AE0139F200D1124122F19C05B
S1130FF08AE0589E200D1124522EE92DE0629E2E87
S113100010C08E3231F496FCE5C2F92DF0649F2EA7
S113101008C08C3621F4292D2068922E02C088360F
S113102041F4F10193FD859193FF81911F01811199
S1131030B3CF9BEB980F933020F4992D9061805E91
S113104007C09BE9980F933008F066C1992D9F7EE5
S113105096FF16E09F73992E853619F49064992EA5
S113106008C0863621F4392F3068932E02C011113E
S1131070115097FE07C01C3350F444244394410E8E
S113108027E00BC0183038F027E017E005C027E050
S11310909CE3492E02C0212F412C560184E0A80E66
S11310A0B11CF6016081718182819381042DA301B9
S11310B00E944F0B6C01F981FC87F0FF02C0F3FF23
S11310C006C091FC06C092FE06C000E205C00DE217
S11310D003C00BE201C000E08C858C7019F0011193
S11310E05AC29BC297FE10C04C0CFC85F4FF04C08E
S11310F08A81813309F44A94141474F528E0241580
S113110078F588E0482E2CC096FC2AC0812F90E008
S11311108C159D059CF03CEFC3163FEFD30674F08D
S1131120892D8068982E0AC0E2E0F0E0EC0FFD1FE4
S1131130E10FF11D8081803319F411501111F4CFA6
S113114097FE0EC044244394410E812F90E0C816AC
S1131150D9062CF41C1904C04424439401C010E0A3
S113116097FE06C01C141D0434F4C601019605C084
S113117085E090E002C081E090E001110196112326
S113118031F0212F30E02F5F3F4F820F931F252D29
S113119030E08217930714F4581A01C0512C892D9A
S11311A0897049F4552039F0B70180E290E00E943B
S11311B03D0C5A94F7CF002329F0B701802F90E01B
S11311C00E943D0C93FC09C0552039F0B70180E31F
S11311D090E00E943D0C5A94F7CF97FE4CC0460114
S11311E0D7FE02C0812C912CC60188199909F301FC
S11311F0E80FF91FFE87ED87960124193109388B12
S11312002F87012F10E01195019511093FEF8316E7
S1131210930629F4B7018EE290E00E943D0CC814B5
S1131220D9044CF08F8598898815990524F4ED85A7
S1131230FE85818101C080E3F1E08F1A91082D853C
S11312403E852F5F3F4F3E872D87801691062CF0F9
S1131250B70190E00E943D0CD9CFC814D90441F4E1
S11312609A81963320F4953319F43C8534FF81E355
S1131270B70190E04EC08A81813319F09C859F7E2E
S11312809C87B70190E00E943D0C111105C094FCAD
S113129018C085E690E017C0B7018EE290E00E9486
S11312A03D0C1E5F82E001E0080FF301E80FF11D21
S11312B08081B70190E00E943D0C802F0113F3CF91
S11312C0E6CF85E490E0B7010E943D0CD7FC06C050
S11312D0C114D10441F4EC85E4FF05C0D194C19458
S11312E0D1088DE201C08BE2B70190E00E943D0C71
S11312F080E32AE0C216D1042CF08F5FFAE0CF1A03
S1131300D108F7CFB70190E00E943D0CB701C601A8
S1131310C0960E943D0C54C1833631F0833779F076
S1131320833509F056C020C0560132E0A30EB11C2B
S1131330F6018081898301E010E0630112C0560147
S1131340F2E0AF0EB11CF601C080D18096FE03C05E
S1131350612F70E002C06FEF7FEFC6010E94320C74
S11313608C01F92DFF7714C0560122E0A20EB11CA6
S1131370F601C080D18096FE03C0612F70E002C0E8
S11313806FEF7FEFC6010E94270C8C01F92DF068E6
S11313909F2EF3FD1AC0852D90E008171907A8F4B5
S11313A0B70180E290E00E943D0C5A94F4CFF6011C
S11313B097FC859197FE81916F01B70190E00E949F
S11313C03D0C51105A94015011090115110579F77A
S11313D0F7C0843611F0893661F5560197FE09C0CD
S11313E024E0A20EB11CF601608171818281938197
S11313F00AC0F2E0AF0EB11CF60160817181072EC4
S1131400000C880B990BF92DFF769F2E97FF09C0CE
S113141090958095709561957F4F8F4F9F4FF068A1
S11314209F2E2AE030E0A3010E949B0CC82EC61810
S11314303FC0092D853721F40F7E2AE030E01DC01E
S1131440097F8F3691F018F4883559F0C3C080377E
S113145019F0883711F0BEC0006104FF09C00460B0
S113146007C094FE08C0066006C028E030E005C04E
S113147020E130E002C020E132E0560107FF09C05C
S113148084E0A80EB11CF601608171818281938190
S113149008C0F2E0AF0EB11CF6016081718180E0FA
S11314A090E0A3010E949B0CC82EC6180F77902EC3
S11314B096FE0BC0092D0E7FC11650F494FE0AC08F
S11314C092FC08C0092D0E7E05C0DC2C092D03C03A
S11314D0DC2C01C0D12E04FF0DC0FE01EC0DF11D6A
S11314E08081803311F4097E09C002FF06C0D394C1
S11314F0D39404C0802F867809F0D39403FD11C0DF
S113150000FF06C01C2DD51480F4150D1D190DC047
S1131510D51458F4B70180E290E00E943D0CD394B6
S1131520F7CFD51410F45D1801C0512C04FF10C07E
S1131530B70180E390E00E943D0C02FF17C001FD5B
S113154003C088E790E002C088E590E0B7010CC0D2
S1131550802F867859F001FF02C08BE201C080E23F
S113156007FD8DE2B70190E00E943D0CC11638F4EE
S1131570B70180E390E00E943D0C1150F7CFCA946C
S1131580F301EC0DF11D8081B70190E00E943D0C48
S1131590C110F5CF15C0F4E0F51560F584E0581AD4
S11315A093FE1FC0011127C02C8523FF2AC004E528
S11315B010E0392D3071932EF8018491811124C0EB
S11315C0552009F4E4CCB70180E290E00E943D0C80
S11315D05A94F6CFF7018681978126C08FEF9FEF4B
S11315E023C0B70180E290E00E943D0C5A94511050
S11315F0F8CFD8CF512CB701802F90E00E943D0C3A
S1131600D3CF08E510E0D5CF91108052B70190E018
S11316100E943D0C0F5F1F4FCFCF23E0251510F420
S113162083E0BDCF512CC0CF6096E2E10C94340B23
S11316302F923F924F925F926F927F928F929F92DE
S1131640AF92BF92CF92DF92EF92FF920F931F93CC
S1131650CF93DF93CDB7DEB7CA1BDB0B0FB6F8947D
S1131660DEBF0FBECDBF09942A88398848885F84BD
S11316706E847D848C849B84AA84B984C884DF802E
S1131680EE80FD800C811B81AA81B981CE0FD11D12
S11316900FB6F894DEBF0FBECDBFED01089528301C
S11316A008F027E03327DA01990F311D87FD916097
S11316B000966105710539F432602E5F3D9330E385
S11316C02A95E1F708959F3F30F080387105610550
S11316D009F03C5F3C5F3D93913008F08068911DB8
S11316E0DF93CF931F930F93FF92EF92192F987F5D
S11316F09695E92F96959695E90FFF27EA54FF4FA3
S113170099273327EE24FF24A701E70105900894C5
S1131710079428F4360FE71EF81E491F511D660F63
S1131720771F881F991F0694A1F70590079428F442
S1131730E70EF81E491F561FC11D770F881F991FFA
S1131740661F0694A1F70590079428F4F80E491F24
S1131750561FC71FD11D880F991F661F771F069438
S1131760A1F70590079420F4490F561FC71FD81FEF
S1131770990F661F771F881F0694A9F78491109507
S1131780177041F0D695C79557954795F794E79408
S11317901A95C1F7ECE5F0E0689415901591359130
S11317A06591959105907FE27395E118F10A430BD9
S11317B0560BC90BD009C0F7E10CF11E431F561F8D
S11317C0C91FD01D7EF4703311F48A95E6CFE894D6
S11317D0015030F0080F0AF40027021708F4202FF4
S11317E02395022F7A3328F079E37D932A95E9F73C
S11317F010C07D932A9589F6069497956795379539
S113180017951794E118F10A430B560BC90BD0092D
S113181098F023957E9173957A3308F070E37C9366
S11318202013B8F77E9170617D9330F0839571E356
S11318307D9370E32A95E1F71124EF90FF900F91C7
S11318401F91CF91DF91992787FD90950895FC0111
S11318500590615070400110D8F7809590958E0FD7
S11318609F1F0895FC016150704001900110D8F74A
S1131870809590958E0F9F1F08950F931F93CF937C
S1131880DF93FB01238121FD03C08FEF9FEF2CC069
S113189022FF16C0468157812481358142175307A0
S11318A044F4A081B1819D012F5F3F4F3183208398
S11318B08C93268137812F5F3F4F3783268314C053
S11318C08B01EC01FB010084F185E02D0995892B46
S11318D0E1F6D80116968D919C911797019617966B
S11318E09C938E931697CE01DF91CF911F910F9108
S11318F00895AEE0B0E0EFE7FCE00C94260B0D8910
S11319001E8986E08C831A8309838FEF9FE79E8369
S11319108D83AE01475E5F4F6F89788DCE0101964E
S11319200E949B07EF81F885E00FF11F10822E962D
S1131930E4E00C94420BFA01AA27283051F120313B
S113194081F1E8946F936E7F6E5F7F4F8F4F9F4F4F
S1131950AF4FB1E03ED0B4E03CD0670F781F891F91
S11319609A1FA11D680F791F8A1F911DA11D6A0F5F
S1131970711D811D911DA11D20D009F468943F9112
S11319802AE0269F11243019305D3193DEF6CF0111
S11319900895462F4770405D4193B3E00FD0C9F7D7
S11319A0F6CF462F4F70405D4A3318F0495D31FD44
S11319B04052419302D0A9F7EACFB4E0A695979597
S11319C0879577956795BA95C9F70097610571056D
S11319D008959B01AC010A2E0694579547953795B7
S11319E02795BA95C9F7620F731F841F951FA01D11
S10919F00895F894FFCFF6
S11319F657656C636F6D650048616E642E2E0054E6
S1131A06656D7065726174757265204F6B005072F6
S1131A1665737320627574746F6E006F70656E699A
S1131A266E6700506C616365204261670025302E45
S1131A3632664B6700506C65617365207761697423
S1131A460054727920416761696E004D616E616769
S1131A5665723A494E20004D616E616765723A4F70
S1131A6655542000436F756E742D20253032752031
S1131A76200050656F706C65206C696D69746564CF
S1131A86202000202020202020202020202020206C
S1071A962020000008
S9030000FC
